:100000000C942A000C9447000C9447000C94470071
:100010000C9447000C9447000C9447000C94470044
:100020000C9447000C9447000C9447000C94470034
:100030000C9447000C9447000C9447000C94470024
:100040000C941D080C9447000C9447000C94470036
:100050000C94470011241FBECFE5D8E0DEBFCDBF12
:1000600011E0A0E6B0E0ECE4F7E402C005900D92E8
:10007000A838B107D9F711E0A8E8B1E001C01D9296
:10008000AC38B107E1F70E94850D0C94A4230C94C1
:100090000000EF92FF920F931F937B018C0120E0F1
:1000A00030E040E05FE40E94F50388238CF0C80153
:1000B000B70120E030E040E05FE40E94C1010E940F
:1000C00055049B01AC01205030404040504806C0D0
:1000D000C801B7010E9455049B01AC01B901CA01D6
:1000E0001F910F91FF90EF900895A0E0B0E0EBE733
:1000F000F0E00C946D23DC012B01FA019C9192300D
:1001000008F439C1EB018881823008F433C194309E
:1001100069F4843009F02FC111969C91119789815F
:10012000981709F428C1A9E7B0E025C1843009F483
:1001300021C18230A9F4923009F01DC19A01AD01AC
:1001400088E0EA010990AE01E90109929E0181501F
:10015000C1F7E201898111969C918923818308C1AD
:10016000923009F407C112962D903C901397EB0141
:100170008A819B811496AD90BD90CD90DC901797AD
:10018000EC80FD800E811F819101281B390BB90184
:1001900037FF04C066277727621B730B6032710537
:1001A0000CF061C0121613066CF537014801062EDB
:1001B00004C096948794779467940A94D2F721E0C8
:1001C00030E040E050E004C0220F331F441F551FB1
:1001D0006A95D2F721503040404050402E213F21B7
:1001E00040235123211531054105510521F021E01E
:1001F00030E040E050E079018A01E628F72808293C
:1002000019293CC0232BD1F1260E371E350146019A
:10021000062E04C096948794779467940A94D2F734
:1002200021E030E040E050E004C0220F331F441FC3
:10023000551F6A95D2F721503040404050402A2146
:100240003B214C215D21211531054105510521F04E
:1002500021E030E040E050E059016A01A628B728CB
:10026000C828D9280BC0821593052CF01C01AA249C
:10027000BB24650103C0EE24FF24870111969C91E5
:10028000D20111968C91981709F445C0992339F041
:10029000A80197012A193B094C095D0906C0A6016E
:1002A00095012E193F09400B510B57FD08C01182D3
:1002B0003382228224833583468357831DC081E0A5
:1002C00081833382228288279927DC01821B930B4A
:1002D000A40BB50B84839583A683B7830DC0220F2F
:1002E000331F441F551F24833583468357838281E0
:1002F000938101979383828324813581468157813D
:10030000DA01C9010197A109B1098F5F9F4FAF4F72
:10031000BF4328F30BC0918333822282EA0CFB1C7B
:100320000C1D1D1DE482F5820683178383E0808304
:10033000248135814681578157FF1AC0C901AA27F8
:1003400097FDA095BA2F81709070A070B0705695EF
:10035000479537952795822B932BA42BB52B848318
:100360009583A683B7838281938101969383828349
:10037000DF0101C0D201CD01CDB7DEB7E2E10C94BF
:100380008923A0E2B0E0E7ECF1E00C9479236983E3
:100390007A838B839C832D833E834F835887E9E048
:1003A000EE2EF12CEC0EFD1ECE010196B7010E943F
:1003B00046068E010F5E1F4FCE010596B8010E94C2
:1003C00046068A8991E089278A8BC701B801AE0168
:1003D000475E5F4F0E9475000E947105A096E6E09F
:1003E0000C949523A0E2B0E0E8EFF1E00C947923BF
:1003F00069837A838B839C832D833E834F835887C5
:10040000F9E0EF2EF12CEC0EFD1ECE010196B701A6
:100410000E9446068E010F5E1F4FCE010596B80161
:100420000E944606C701B801AE01475E5F4F0E94B9
:1004300075000E947105A096E6E00C949523A0E259
:10044000B0E0E5E2F2E00C946D2369837A838B835C
:100450009C832D833E834F835887CE010196BE0136
:10046000675F7F4F0E944606CE010596BE016F5E14
:100470007F4F0E9446069985923088F089898230A4
:10048000C8F0943019F4823051F404C0843029F457
:10049000923081F489E790E0C6C0923049F420E0C0
:1004A0009A858A89981321E02A87CE010996BBC0D4
:1004B000823049F420E09A858A89981321E02A8BBA
:1004C000CE014196B0C02D843E844F8458886D88FB
:1004D0007E888F88988CEE24FF248701AA24BB2471
:1004E000650140E050E060E070E0E0E0F0E0C10174
:1004F00081709070892BE9F0E60CF71C081D191D1E
:100500009A01AB012A0D3B1D4C1D5D1D80E090E062
:10051000A0E0B0E0E614F7040805190520F481E036
:1005200090E0A0E0B0E0BA01A901480F591F6A1F8E
:100530007B1FAA0CBB1CCC1CDD1C97FE08C081E0F5
:1005400090E0A0E0B0E0A82AB92ACA2ADB2A3196B6
:10055000E032F10549F0660C771C881C991C569412
:10056000479437942794C3CFFA85EA892B893C892D
:100570008B859C85280F391F2E5F3F4F17C0CA01FE
:1005800081709070892B61F016950795F794E79428
:1005900080E090E0A0E0B0E8E82AF92A0A2B1B2BC3
:1005A00076956795579547952F5F3F4F77FDE7CF36
:1005B0000CC0440F551F661F771F17FD4160EE0CDE
:1005C000FF1C001F111F21503040403090E05907A0
:1005D00090E0690790E4790760F32B8F3C8FDB0193
:1005E000CA018F779070A070B07080349105A1051A
:1005F000B10561F447FD0AC0E114F10401051105DC
:1006000029F0405C5F4F6F4F7F4F40781A8EFE1786
:1006100011F081E08A8F4D8F5E8F6F8F78A383E01A
:10062000898FCE0149960E947105A096E2E10C9453
:100630008923A8E1B0E0EFE1F3E00C94752369832E
:100640007A838B839C832D833E834F835887B9E0C5
:10065000EB2EF12CEC0EFD1ECE010196B7010E948F
:1006600046068E010F5E1F4FCE010596B8010E940F
:1006700046062985223008F47EC03989323010F4CC
:10068000B8017CC08A859A8989278A87243011F02D
:10069000223031F4231709F06EC069E770E06EC0B4
:1006A000343039F41D861E861F86188A1C861B86E8
:1006B00004C0323021F484E08987B7015FC02B8504
:1006C0003C858B899C89281B390B3C872B87ED84C3
:1006D000FE840F851889AD88BE88CF88D88CEA142F
:1006E000FB040C051D0540F4EE0CFF1C001F111F40
:1006F000215030403C872B8720E030E040E050E044
:1007000080E090E0A0E0B0E460E070E0EA14FB0478
:100710000C051D0540F0282B392B4A2B5B2BEA18C2
:10072000FB080C091D09B695A79597958795EE0CC2
:10073000FF1C001F111F6F5F7F4F6F31710531F775
:10074000DA01C9018F779070A070B0708034910584
:10075000A105B10561F427FD0AC0E114F10401050A
:10076000110529F0205C3F4F4F4F5F4F20782D87B8
:100770003E874F87588BBE01675F7F4FCB010E943A
:1007800071056896EAE00C949123A8E1B0E0EBECE7
:10079000F3E00C94792369837A838B839C832D8384
:1007A0003E834F83588789E0E82EF12CEC0EFD1E26
:1007B000CE010196B7010E9446068E010F5E1F4FC3
:1007C000CE010596B8010E9446068985823040F028
:1007D0008989823028F0C701B8010E94BE0601C095
:1007E0008FEF6896E6E00C949523A8E1B0E0EBEF7C
:1007F000F3E00C94792369837A838B839C832D8324
:100800003E834F83588789E0E82EF12CEC0EFD1EC5
:10081000CE010196B7010E9446068E010F5E1F4F62
:10082000CE010596B8010E9446068985823040F0C7
:100830008989823028F0C701B8010E94BE0601C034
:100840008FEF6896E6E00C949523A8E1B0E0EBE228
:10085000F4E00C94792369837A838B839C832D83C2
:100860003E834F83588789E0E82EF12CEC0EFD1E65
:10087000CE010196B7010E9446068E010F5E1F4F02
:10088000CE010596B8010E9446068985823040F067
:100890008989823028F0C701B8010E94BE0601C0D4
:1008A00081E06896E6E00C949523ACE0B0E0EBE5DF
:1008B000F4E00C947D2369837A838B839C83CE013F
:1008C0000196BE016B5F7F4F0E9446068D8182308C
:1008D00061F1823050F1843021F48E81882351F10E
:1008E0002EC02F81388537FD20C06E812F31310514
:1008F0001CF06623F9F023C08EE190E0821B930B7D
:1009000029853A854B855C8504C056954795379572
:1009100027958A95D2F76623B1F05095409530958A
:1009200021953F4F4F4F5F4F0EC020E030E040E039
:1009300050E009C02FEF3FEF4FEF5FE704C020E02A
:1009400030E040E050E8B901CA012C96E2E00C9496
:100950009923A8E0B0E0EFEAF4E00C9475237B0162
:100960008C01611571058105910519F482E0898377
:1009700060C083E089838EE1C82ED12CDC82CB82DB
:10098000ED82FE820F831887C801B7010E942205FD
:10099000FC013197F7FF3BC0222733272E1B3F0B6B
:1009A00057016801022E04C0D694C794B794A79447
:1009B0000A94D2F740E050E060E070E081E090E01F
:1009C000A0E0B0E004C0880F991FAA1FBB1F2A95A2
:1009D000D2F70197A109B1098E219F21A023B1234C
:1009E0000097A105B10521F041E050E060E070E022
:1009F0004A295B296C297D294D835E836F83788723
:100A00008EE190E08E1B9F0B9C838B8312C03097EE
:100A100081F00E2E04C0EE0CFF1C001F111F0A9463
:100A2000D2F7ED82FE820F831887CE1ADF0ADC82AE
:100A3000CB821A82CE0101960E9471052896EAE0C7
:100A40000C949123EF92FF920F931F937B018C01E3
:100A500080E0E81680E0F80681E0080780E01807EB
:100A600088F48FEFE816F1040105110531F028F044
:100A700088E090E0A0E0B0E017C080E090E0A0E067
:100A8000B0E012C080E0E81680E0F80680E00807D9
:100A900081E0180728F088E190E0A0E0B0E004C011
:100AA00080E190E0A0E0B0E020E230E040E050E003
:100AB000281B390B4A0B5B0B04C016950795F7945E
:100AC000E7948A95D2F7F701EF57FF4F8081281BF3
:100AD000310941095109C9011F910F91FF90EF9010
:100AE0000895DF92EF92FF920F931F93FC01E48031
:100AF000F58006811781D1808081823048F480E0C2
:100B000090E0A0E1B0E0E82AF92A0A2B1B2BA5C04F
:100B1000843009F49FC0823021F4EE24FF24870141
:100B200005C0E114F1040105110519F4E0E0F0E05D
:100B300096C0628173819FEF623879070CF05BC0C9
:100B400022E83FEF261B370B2A3131052CF020E03D
:100B500030E040E050E02AC0B801A701022E04C0F6
:100B600076956795579547950A94D2F781E090E07E
:100B7000A0E0B0E004C0880F991FAA1FBB1F2A95F0
:100B8000D2F70197A109B1098E219F21A023B1239A
:100B90000097A105B10521F081E090E0A0E0B0E070
:100BA0009A01AB01282B392B4A2B5B2BDA01C901A7
:100BB0008F779070A070B07080349105A105B10559
:100BC00039F427FF09C0205C3F4F4F4F5F4F04C0EF
:100BD000215C3F4F4F4F5F4FE0E0F0E02030A0E05E
:100BE0003A07A0E04A07A0E45A0710F0E1E0F0E07D
:100BF00079018A0127C06038710564F5FB01E1586D
:100C0000FF4FD801C7018F779070A070B07080340B
:100C10009105A105B10539F4E7FE0DC080E490E02F
:100C2000A0E0B0E004C08FE390E0A0E0B0E0E80E08
:100C3000F91E0A1F1B1F17FF05C016950795F7948D
:100C4000E794319687E016950795F794E7948A958F
:100C5000D1F705C0EE24FF248701EFEFF0E06E2FFF
:100C6000679566276795902F9F77D794DD24D79453
:100C70008E2F8695492F462B582F5D29B701CA0123
:100C80001F910F91FF90EF90DF900895FC01DB0121
:100C9000408151812281622F6F7770E0221F2227CD
:100CA000221F9381892F880F822B282F30E0991FD4
:100CB0009927991F11969C93119721153105A9F534
:100CC000411551056105710511F482E037C082E8D4
:100CD0009FEF13969C938E9312979A01AB0167E056
:100CE000220F331F441F551F6A95D1F783E08C9361
:100CF0000DC0220F331F441F551F12968D919C91DA
:100D00001397019713969C938E931297203080E04F
:100D1000380780E0480780E4580758F314962D936D
:100D20003D934D935C93179708952F3F310579F4C8
:100D3000411551056105710519F484E08C930895FE
:100D400064FF03C081E08C9312C01C9210C02F5727
:100D5000304013963C932E93129783E08C9387E058
:100D6000440F551F661F771F8A95D1F7706414963C
:100D70004D935D936D937C93179708951F93DC01BA
:100D8000FB019C91923008F447C08081823008F4C6
:100D900043C0943051F411961C91843099F58181AF
:100DA000682F70E0611B71093FC0843021F09230E0
:100DB00031F48230B9F18181882389F12DC01196F7
:100DC0001C9111978230F1F081811817D9F4129695
:100DD0002D913C911397828193818217930794F010
:100DE00028173907BCF014968D919D910D90BC91F8
:100DF000A02D2481358146815781281739074A075C
:100E00005B0718F4112341F00AC082179307A40767
:100E1000B50740F4112319F061E070E005C06FEFF1
:100E20007FEF02C060E070E0CB011F910895DF9377
:100E3000CF93CDB7DEB7A7E2B0E0E7E2F0E0808184
:100E40008F738C93A7E2B0E0E7E2F0E080818064EA
:100E50008C93A7E2B0E0E7E2F0E0808180628C93BF
:100E6000A6E2B0E0E6E2F0E08081887F8C93A6E223
:100E7000B0E0E6E2F0E0808187608C93A6E2B0E02B
:100E8000E6E2F0E0808180688C93CF91DF91089555
:100E9000DF93CF93CDB7DEB728970FB6F894DEBFB8
:100EA0000FBECDBF8E8378876F8381E08D831982DB
:100EB0001A821B821C828F819885009709F45BC07F
:100EC00080918101813009F053C082E080938101DB
:100ED000A7E2B0E0E7E2F0E08081807E8C93A7E2B9
:100EE000B0E0E7E2F0E090818E81892B8C93A6E25E
:100EF000B0E0E6E2F0E0808180648C930BC08981F1
:100F00009A81AB81BC810196A11DB11D89839A8311
:100F1000AB83BC83E6E2F0E0808182958F70882FFE
:100F200090E081709070009751F389819A81AB8134
:100F3000BC81803523EC920720E0A20720E0B207B5
:100F400019F484E08D8310C0A6E2B0E0E6E2F0E0A0
:100F5000808180618C93E5E2F0E08081882F90E0D1
:100F6000EF81F8859183808381E08093810105C0C2
:100F700085E08D8302C083E08D838D8128960FB636
:100F8000F894DEBF0FBECDBFCF91DF910895DF9300
:100F9000CF9300D000D000D0CDB7DEB78A837C835A
:100FA0006B835E834D8381E089838B819C81009775
:100FB000C1F18D819E810097A1F1809181018130E5
:100FC00069F582E0809381018B819C8190938901F6
:100FD000809388018D819E8190938B0180938A01FB
:100FE000A7E2B0E0E7E2F0E08081807E8C93A7E2A8
:100FF000B0E0E7E2F0E090818A81892B8C93A6E251
:10100000B0E0E6E2F0E0808180648C93A6E2B0E09C
:10101000E6E2F0E0808188608C9305C085E08983FA
:1010200002C083E08983898126960FB6F894DEBFDB
:101030000FBECDBFCF91DF9108951F920F920FB6D3
:101040000F9211242F933F934F935F936F937F934E
:101050008F939F93AF93BF93EF93FF93DF93CF93C0
:10106000CDB7DEB7A0918801B0918901E5E2F0E04B
:101070008081882F90E08D939C93A6E2B0E0E6E219
:10108000F0E08081877F8C9381E080938101809163
:101090008A0190918B01009729F0E0918A01F091EB
:1010A0008B010995CF91DF91FF91EF91BF91AF91A6
:1010B0009F918F917F916F915F914F913F912F9170
:1010C0000F900FBE0F901F901895DF93CF93CDB761
:1010D000DEB728970FB6F894DEBF0FBECDBF8A8368
:1010E0006B834C8381E089838B81883008F0F4C066
:1010F0008C81882309F077C08A81282F30E03887D7
:101100002F838F8198858130910559F12F81388502
:10111000223031052CF48F819885009769F060C0EA
:101120002F8138852230310589F18F819885833070
:10113000910509F440C054C0ABE3B0E0EBE3F0E04C
:101140008081482F8B81282F30E081E090E0022EB3
:1011500002C0880F991F0A94E2F7809584238C932C
:10116000BDC0A8E3B0E0E8E3F0E08081482F8B81C8
:10117000282F30E081E090E0022E02C0880F991FF6
:101180000A94E2F7809584238C93A8C0A5E3B0E08D
:10119000E5E3F0E08081482F8B81282F30E081E06B
:1011A00090E0022E02C0880F991F0A94E2F7809502
:1011B00084238C9393C0A2E3B0E0E2E3F0E080816B
:1011C000482F8B81282F30E081E090E0022E02C072
:1011D000880F991F0A94E2F7809584238C937EC030
:1011E00082E089837BC08C81813009F072C08A8162
:1011F000282F30E03E832D838D819E8181309105A3
:1012000049F12D813E81223031052CF48D819E8162
:10121000009761F05BC02D813E812230310571F174
:101220008D819E8183309105E9F150C0ABE3B0E040
:10123000EBE3F0E08081482F8B81282F30E081E0C4
:1012400090E0022E02C0880F991F0A94E2F7842BC7
:101250008C9344C0A8E3B0E0E8E3F0E08081482F3D
:101260008B81282F30E081E090E0022E02C0880FB1
:10127000991F0A94E2F7842B8C9330C0A5E3B0E069
:10128000E5E3F0E08081482F8B81282F30E081E07A
:1012900090E0022E02C0880F991F0A94E2F7842B77
:1012A0008C931CC0A2E3B0E0E2E3F0E08081482F21
:1012B0008B81282F30E081E090E0022E02C0880F61
:1012C000991F0A94E2F7842B8C9308C082E08983EB
:1012D00005C082E0898302C082E0898389812896E3
:1012E0000FB6F894DEBF0FBECDBFCF91DF9108954A
:1012F000DF93CF9300D000D00F92CDB7DEB78A83B3
:101300006B8381E089838A81282F30E03D832C83A1
:101310008C819D8181309105D1F02C813D812230DD
:1013200031052CF48C819D81009761F01FC02C81C8
:101330003D812230310581F08C819D818330910582
:1013400081F014C0EBE3F0E08B81808311C0E8E30F
:10135000F0E08B8180830CC0E5E3F0E08B8180833B
:1013600007C0E2E3F0E08B81808302C082E08983E2
:1013700089810F900F900F900F900F90CF91DF9178
:101380000895DF93CF93CDB7DEB727970FB6F894C4
:10139000DEBF0FBECDBF8A836B835D834C8381E04C
:1013A00089838B81883008F074C08A81282F30E0CF
:1013B0003F832E834E815F814130510559F18E81EB
:1013C0009F818230910534F42E813F8121153105B2
:1013D00069F05CC04E815F814230510579F18E81A8
:1013E0009F818330910509F43DC050C0E9E3F0E0EE
:1013F0008081282F30E08B81882F90E0A90102C0E6
:10140000559547958A95E2F7CA018170EC81FD8177
:10141000808341C0E6E3F0E08081282F30E08B81BB
:10142000882F90E0A90102C0559547958A95E2F76B
:10143000CA018170EC81FD8180832DC0E3E3F0E07F
:101440008081282F30E08B81882F90E0A90102C095
:10145000559547958A95E2F7CA018170EC81FD8127
:10146000808319C0E0E3F0E08081282F30E08B8199
:10147000882F90E0A90102C0559547958A95E2F71B
:10148000CA018170EC81FD81808305C082E089837F
:1014900002C082E08983898127960FB6F894DEBF67
:1014A0000FBECDBFCF91DF910895DF93CF93CDB71E
:1014B000DEB72E970FB6F894DEBF0FBECDBF81E02A
:1014C00063E041E00E94650880E090E0A0E0B0E4C5
:1014D0008B879C87AD87BE876B857C858D859E8538
:1014E00020E030E04AE755E40E941F02DC01CB0116
:1014F0008F839887A987BA876F81788589859A8530
:1015000020E030E040E85FE30E94250488232CF4CB
:1015100081E090E09E838D833FC06F8178858985CF
:101520009A8520E03FEF4FE757E40E94C503181665
:101530004CF56B857C858D859E8520E030E040E212
:1015400051E40E941F02DC01CB01BC01CD010E94CD
:101550004900DC01CB019E838D830FC080E991E0BF
:101560009C838B838B819C810197F1F79C838B8378
:101570008D819E8101979E838D838D819E810097B1
:1015800069F714C06F81788589859A850E94490022
:10159000DC01CB019E838D838D819E819A8389831B
:1015A00089819A810197F1F79A83898381E063E0C9
:1015B00040E00E9465082E960FB6F894DEBF0FBE7D
:1015C000CDBFCF91DF910895DF93CF9300D000D0AE
:1015D00000D0CDB7DEB78E8387E08A8385E08B832A
:1015E00086E08C8387E08D83198241C089818823BE
:1015F000F1F48981282F30E0CE010296FC01E20F40
:10160000F31F40818E81282F30E08981882F90E060
:10161000B90102C0759567958A95E2F7CB01982FBD
:10162000917081E0642F492F0E9465081DC0898157
:10163000282F30E0CE010296FC01E20FF31F40811B
:101640008E81282F30E08981882F90E0B90102C077
:10165000759567958A95E2F7CB01982F917080E098
:10166000642F492F0E94650889818F5F8983898152
:10167000843008F4BBCF26960FB6F894DEBF0FBEB9
:10168000CDBFCF91DF910895DF93CF930F92CDB768
:10169000DEB7898381E061E040E00E94650881E077
:1016A00062E040E00E946508898182958F700E9407
:1016B000E40A0E94550A89810E94E40A0E94550AA0
:1016C0000F90CF91DF910895DF93CF930F92CDB715
:1016D000DEB7898381E061E041E00E94650881E036
:1016E00062E040E00E946508898182958F700E94C7
:1016F000E40A0E94550A89810E94E40A0E94550A60
:101700000F90CF91DF910895DF93CF93CDB7DEB7E0
:101710002E970FB6F894DEBF0FBECDBF80E090E0ED
:10172000A0E2B2E48B879C87AD87BE876B857C8502
:101730008D859E8520E030E04AE755E40E941F0237
:10174000DC01CB018F839887A987BA876F81788561
:1017500089859A8520E030E040E85FE30E94250417
:1017600088232CF481E090E09E838D833FC06F81BD
:10177000788589859A8520E03FEF4FE757E40E94FE
:10178000C50318164CF56B857C858D859E8520E0FC
:1017900030E040E251E40E941F02DC01CB01BC01B9
:1017A000CD010E944900DC01CB019E838D830FC0D7
:1017B00080E991E09C838B838B819C810197F1F779
:1017C0009C838B838D819E8101979E838D838D81E8
:1017D0009E81009769F714C06F81788589859A8505
:1017E0000E944900DC01CB019E838D838D819E8107
:1017F0009A83898389819A810197F1F79A838983F2
:1018000082E00E94E40A0E94550A82E00E94E40AF3
:101810000E94550A88E00E94E40A0E94550A8CE062
:101820000E94440B81E00E94440B2E960FB6F89460
:10183000DEBF0FBECDBFCF91DF910895DF93CF9371
:1018400000D000D0CDB7DEB79C838B8381E08A8344
:1018500019828B819C810097D9F00EC08981282F35
:1018600030E08B819C81FC01E20FF31F80810E949C
:10187000640B89818F5F89838981282F30E08B8178
:101880009C81FC01E20FF31F8081882339F702C09D
:1018900083E08A838A810F900F900F900F90CF91F1
:1018A000DF910895DF93CF9300D000D000D0CDB763
:1018B000DEB78B836C8381E08A838C81282F30E0B4
:1018C0003E832D838D819E81009731F02D813E8155
:1018D0002130310521F007C08B81898306C08B81BF
:1018E000805C898302C082E08A83898180688983E1
:1018F00089810E94440B8A8126960FB6F894DEBF38
:101900000FBECDBFCF91DF910895DF93CF93CDB7B9
:10191000DEB727970FB6F894DEBF0FBECDBF9C830E
:101920008B836D834E832F838D81882F90E0880F6A
:10193000991F880F991F880F991F89838981806457
:10194000898389810E94440B1A820EC08A81282FC4
:1019500030E08B819C81FC01E20FF31F80810E94AB
:10196000640B8A818F5F8A838A81883078F38E81C5
:101970006F810E94520C8D810E94640B27960FB6D6
:10198000F894DEBF0FBECDBFCF91DF910895DF93F6
:10199000CF93CDB7DEB72A970FB6F894DEBF0FBE50
:1019A000CDBF6F83788789879A871A821B821C82B2
:1019B0001D8219828F819885A985BA850097A10516
:1019C000B10509F043C080E30E94640B3FC08F81E2
:1019D0009885A985BA852AE030E040E050E0BC0156
:1019E000CD010E944B23DC01CB018E838A819B8138
:1019F000AC81BD812AE030E040E050E0BC01CD0187
:101A00000E942C239B01AC018E81882F90E0A0E0E6
:101A1000B0E0820F931FA41FB51F8A839B83AC8302
:101A2000BD838F819885A985BA852AE030E040E0A2
:101A300050E0BC01CD010E944B23DA01C9018F8324
:101A40009887A987BA8789818F5F89838F819885D5
:101A5000A985BA850097A105B10509F0B8CF28C0BE
:101A60008A819B81AC81BD812AE030E040E050E07A
:101A7000BC01CD010E944B23DC01CB018E838E8102
:101A8000805D0E94640B8A819B81AC81BD812AE0CC
:101A900030E040E050E0BC01CD010E944B23DA0170
:101AA000C9018A839B83AC83BD83898181508983EB
:101AB00089818823A9F62A960FB6F894DEBF0FBE57
:101AC000CDBFCF91DF910895DF93CF93CDB7DEB730
:101AD000EAE3F0E080EE8083E7E3F0E08EE88083E5
:101AE000E4E3F0E01082E1E3F0E01082EBE3F0E009
:101AF0001082E8E3F0E01082E5E3F0E01082E2E338
:101B0000F0E01082CF91DF9108950F931F93DF9340
:101B1000CF93CDB7DEB7CA50D2400FB6F894DEBF30
:101B20000FBECDBF0E94640D0E9417070E94840B58
:101B3000CE01855E9E4F2AE0FC01DF01322F1D920F
:101B40003A95E9F7CE018B5D9E4FCA5FDD4F9983D1
:101B50008883C650D24082E891E0C85FDD4F998308
:101B60008883C850D24095E0C65FDD4F9883CA5045
:101B7000D240C85FDD4FA881B981C850D2400C90D7
:101B8000C85FDD4FE881F981C850D2403196C85F07
:101B9000DD4FF983E883C850D240CA5FDD4FA8818A
:101BA000B981C650D2400C92CA5FDD4FE881F981FD
:101BB000C650D2403196CA5FDD4FF983E883C650E4
:101BC000D240C65FDD4FF881CA50D240F150C65FA7
:101BD000DD4FF883CA50D240C65FDD4F2881CA501E
:101BE000D240222331F6CE01865D9E4F20EDFC01CE
:101BF000DF01322F1D923A95E9F7FE01E65DFE4FB7
:101C000086E08083FE01E65DFE4F8CE08183FE016D
:101C1000E65DFE4F84E08283FE01E65DFE4F84E0D8
:101C20008383FE01E65DFE4F84E08483FE01E65D72
:101C3000FE4F81E18387FE01E65DFE4F8FE18487E1
:101C4000FE01E65DFE4F84E08687FE01E65DFE4F05
:101C50008AE0828BFE01E65DFE4F81E1838BFE010F
:101C6000E65DFE4F8FE1848BFE01E65DFE4F88E06E
:101C7000818FFE01E65DFE4F84E0828FFE01E65D0E
:101C8000FE4F82E0838FFE01E65DFE4F8FE1848F81
:101C9000FE01E65DFE4F84E082A3FE01E65DFE4F9D
:101CA00081E083A3FE01E65DFE4F8FE184A3FE0188
:101CB000E65DFE4F82E083A7FE01E65DFE4F84E015
:101CC00084A7FE01E65DFE4F88E085A7FE01E65D84
:101CD000FE4F80E186A7FE01E65DFE4F85E080AB0A
:101CE000FE01E65DFE4F87E082ABFE01E65DFE4F42
:101CF00085E083ABFE01E65DFE4F8FE184ABFE0124
:101D0000E65DFE4F84E081AFFE01E65DFE4F84E0BC
:101D100082AFFE01E65DFE4F84E083AFFE01E65D2B
:101D2000FE4F84E084AFCE01865D9E4FFC01ED5BEB
:101D3000FF4F82E08083CE01865D9E4FFC01EC5B0D
:101D4000FF4F8EE18083CE01865D9E4FFC01EA5BF2
:101D5000FF4F8CE08083CE01865D9E4FFC01E65BE9
:101D6000FF4F87E08083CE01865D9E4FFC01E55BDF
:101D7000FF4F85E08083CE01865D9E4FFC01E45BD2
:101D8000FF4F8FE18083CE01865D9E4FFC01EE5AAE
:101D9000FF4F8EE08083CE01865D9E4FFC01ED5AA1
:101DA000FF4F88E08083CE01865D9E4FFC01EC5A98
:101DB000FF4F8FE18083CE01865D9E4FFC01E65A86
:101DC000FF4F87E08083CE01865D9E4FFC01E55A80
:101DD000FF4F81E08083CE01865D9E4FFC01E45A77
:101DE000FF4F87E08083CE01865D9E4FFC01ED5959
:101DF000FF4F86E08083CE01865D9E4FFC01EC594B
:101E0000FF4F8EE08083CE01865D9E4FFC01EB5933
:101E1000FF4F88E08083CE01865D9E4FFC01EA592A
:101E2000FF4F88E08083CE01865D9E4FFC01E7591D
:101E3000FF4F82E08083CE01865D9E4FFC01E65914
:101E4000FF4F85E08083CE01865D9E4FFC01E55902
:101E5000FF4F83E08083CE01865D9E4FFC01E459F5
:101E6000FF4F8FE18083CE01865D9E4FFC01EF58CE
:101E7000FF4F81E08083CE01865D9E4FFC01EE58CE
:101E8000FF4F81E08083CE01865D9E4FFC01ED58BF
:101E9000FF4F81E08083CE01865D9E4FFC01EC58B0
:101EA000FF4F85E08083CE01865D9E4FFC01EB589D
:101EB000FF4F85E08083CE01865D9E4FFC01EA588E
:101EC000FF4F82E08083CE01865D9E4FFC01E65885
:101ED000FF4F8CE08083CE01865D9E4FFC01E5586C
:101EE000FF4F82E08083CE01865D9E4FFC01E45867
:101EF000FF4F8FE18083CE01865D9E4FFC01E3584A
:101F0000FF4F84E08083CE01865D9E4FFC01E05848
:101F1000FF4F8DE08083CE01865D9E4FFC01EF5721
:101F2000FF4F89E18083CE01865D9E4FFC01EE5715
:101F3000FF4F81E08083CE01865D9E4FFC01ED570F
:101F4000FF4F81E18083CE01865D9E4FFC01EC57FF
:101F5000FF4F8FE18083CE01865D9E4FFC01E657E7
:101F6000FF4F85E18083CE01865D9E4FFC01E557E2
:101F7000FF4F85E18083CE01865D9E4FFC01E457D3
:101F8000FF4F8FE18083CE01865D9E4FFC01EF56AF
:101F9000FF4F8AE08083CE01865D9E4FFC01EE56A6
:101FA000FF4F84E08083CE01865D9E4FFC01ED569D
:101FB000FF4F8AE08083CE01865D9E4FFC01EC5688
:101FC000FF4F8EE08083CE01865D9E4FFC01E85678
:101FD000FF4F85E18083CE01865D9E4FFC01E65672
:101FE000FF4F85E18083CE01865D9E4FFC01E55663
:101FF000FF4F85E18083CE01865D9E4FFC01E45654
:10200000FF4F8FE18083CE01865D9E4FFC01E0563D
:10201000FF4F81E08083CE01865D9E4FFC01EF552E
:10202000FF4F82E08083CE01865D9E4FFC01EE551E
:10203000FF4F84E08083CE01865D9E4FFC01ED550D
:10204000FF4F82E08083CE01865D9E4FFC01EC5500
:10205000FF4F8FE18083CE01865D9E4FFC01E855E6
:10206000FF4F84E08083CE01865D9E4FFC01E755E3
:10207000FF4F8AE08083CE01865D9E4FFC01E655CE
:10208000FF4F88E08083CE01865D9E4FFC01E555C1
:10209000FF4F84E08083CE01865D9E4FFC01E455B6
:1020A000FF4F84E08083CE01865D9E4FFC01E255A8
:1020B000FF4F84E08083CE01865D9E4FFC01EE548D
:1020C000FF4F87E08083CE01865D9E4FFC01ED547B
:1020D000FF4F85E08083CE01865D9E4FFC01EC546E
:1020E000FF4F87E08083CE01865D9E4FFC01EB545D
:1020F000FF4F81E08083CE01865D9E4FFC01EA5454
:10210000FF4F82E08083CE01865D9E4FFC01E85444
:10211000FF4F84E08083CE01865D9E4FFC01E65434
:10212000FF4F8CE08083CE01865D9E4FFC01E5541D
:10213000FF4F82E08083CE01865D9E4FFC01E45418
:10214000FF4F8FE18083CE01865D9E4FFC01EE53F1
:10215000FF4F84E08083CE01865D9E4FFC01ED53EE
:10216000FF4F81E18083CE01865D9E4FFC01EC53E1
:10217000FF4F8FE18083CE01865D9E4FFC01E853C7
:10218000FF4F82E08083CE01865D9E4FFC01E653C7
:10219000FF4F87E08083CE01865D9E4FFC01E553B3
:1021A000FF4F85E08083CE01865D9E4FFC01E453A6
:1021B000FF4F8FE1808381E00E94440BCE01865067
:1021C0009E4F2AE0FC01DF01322F1D923A95E9F77C
:1021D000FE01EB5DFE4F4481CE0186509E4F9C0177
:1021E000285F3F4F842FB9010E944807FE01E65047
:1021F000FE4F80859185CC01A0E0B0E0BC01CD010F
:102200000E94A904DC01CB01BC01CD0120E030E03B
:1022100040EA51E40E941903DC01CB01BC01CD016D
:102220000E944900DC01CB01FE01E650FE4F918780
:10223000808780E060E00E94520CFE01E650FE4F75
:1022400080859185CC01A0E0B0E0BC01CD010E9469
:10225000C70CFE01EB5EFE4F80E090E0AAEFB4E415
:1022600080839183A283B3838E010F5E1E4FFE0194
:10227000EB5EFE4F608171818281938120E030E0CE
:102280004AE755E40E941F02DC01CB01F80180837C
:102290009183A283B383FE01EF5EFE4F6081718163
:1022A0008281938120E030E040E85FE30E942504D2
:1022B000882344F4FE01E15FFE4F81E090E09183CA
:1022C000808364C0FE01EF5EFE4F60817181828178
:1022D000938120E03FEF4FE757E40E94C5031816B3
:1022E0000CF043C0FE01EB5EFE4F60817181828184
:1022F000938120E030E040E251E40E941F02DC01C3
:10230000CB018E01015F1E4FBC01CD010E9449002F
:10231000DC01CB01F801918380831FC0FE01E35FE4
:10232000FE4F80E991E091838083FE01E35FFE4FE1
:10233000808191810197F1F7FE01E35FFE4F918368
:102340008083DE01A15FBE4FFE01E15FFE4F808111
:102350009181019711969C938E93FE01E15FFE4F50
:10236000808191810097D1F628C08E01015F1E4FB8
:10237000FE01EF5EFE4F60817181828193810E9438
:102380004900DC01CB01F80191838083DE01A55F68
:10239000BE4FFE01E15FFE4F8081918111969C93BB
:1023A0008E93FE01E55FFE4F808191810197F1F7E9
:1023B000FE01E55FFE4F91838083FE01E650FE4FF4
:1023C00080859185009709F4F6CE80E060E00E9458
:1023D000520C80E690E00E941E0CFE01E95FFE4F69
:1023E00080E090E0AAEFB4E480839183A283B3837A
:1023F0008E010D5F1E4FFE01E95FFE4F608171810E
:102400008281938120E030E04AE755E40E941F0278
:10241000DC01CB01F80180839183A283B383FE01A9
:10242000ED5FFE4F608171818281938120E030E019
:1024300040E85FE30E942504882344F4FE01EF5F37
:10244000FE4F81E090E09183808364C0FE01ED5FE8
:10245000FE4F608171818281938120E03FEF4FE7E1
:1024600057E40E94C50318160CF043C0FE01E95F53
:10247000FE4F608171818281938120E030E040E2F3
:1024800051E40E941F02DC01CB018E010F5F1E4F41
:10249000BC01CD010E944900DC01CB01F801918310
:1024A00080831FC0FE01E150FF4F80E991E09183DE
:1024B0008083FE01E150FF4F808191810197F1F708
:1024C000FE01E150FF4F91838083DE01AF5FBE4F7D
:1024D000FE01EF5FFE4F80819181019711969C93E1
:1024E0008E93FE01EF5FFE4F808191810097D1F6C0
:1024F00027C08E010F5F1E4FFE01ED5FFE4F608112
:102500007181828193810E944900DC01CB01F80135
:1025100091838083DE01A350BF4FFE01EF5FFE4F2A
:10252000808191818D939C93FE01E350FF4F8081C8
:1025300091810197F1F7FE01E350FF4F9183808372
:10254000FE01E75EFE4F108281E00E94440BFE0117
:10255000E65EFE4F108290C1FE01E65EFE4F808176
:10256000282F30E0CE018B5D9E4FFC01E20FF31F60
:102570004081FE01E65EFE4F8081882F90E0880F4B
:10258000991F9E0126503E4F280F391F842FB901F5
:102590000E944807FE01E65EFE4F8081082F10E092
:1025A000FE01E65EFE4F8081882F90E09E0126505E
:1025B0003E4F880F991FF901E80FF91F8081918123
:1025C000CC01A0E0B0E0BC01CD010E94A904DC0177
:1025D000CB01BC01CD0120E030E040EA51E40E9493
:1025E0001903DC01CB01BC01CD010E944900DC01D3
:1025F000CB01AC019E0126503E4FC801880F991FA8
:10260000F901E80FF91F51834083FE01E65EFE4F9A
:102610008081882F90E09E0126503E4F880F991FA1
:10262000F901E80FF91F80819181CC01A0E0B0E0B1
:10263000BC01CD010E94C70CFE01E750FF4F80E0B6
:1026400090E0AAE7B4E480839183A283B3838E01F0
:102650000B501F4FFE01E750FF4F60817181828157
:10266000938120E030E04AE755E40E941F02DC013C
:10267000CB01F80180839183A283B383FE01EB50E9
:10268000FF4F608171818281938120E030E040E8DA
:102690005FE30E942504882344F4FE01ED50FF4FC0
:1026A00081E090E09183808364C0FE01EB50FF4F96
:1026B000608171818281938120E03FEF4FE757E491
:1026C0000E94C50318160CF043C0FE01E750FF4FEF
:1026D000608171818281938120E030E040E251E4A9
:1026E0000E941F02DC01CB018E010D501F4FBC0167
:1026F000CD010E944900DC01CB01F8019183808368
:102700001FC0FE01EF50FF4F80E991E0918380836D
:10271000FE01EF50FF4F808191810197F1F7FE019B
:10272000EF50FF4F91838083DE01AD50BF4FFE011C
:10273000ED50FF4F80819181019711969C938E936C
:10274000FE01ED50FF4F808191810097D1F628C0A6
:102750008E010D501F4FFE01EB50FF4F60817181C4
:10276000828193810E944900DC01CB01F8019183B1
:102770008083DE01A151BF4FFE01ED50FF4F8081EC
:10278000918111969C938E93FE01E151FF4F8081C0
:1027900091810197F1F7FE01E151FF4F9183808311
:1027A000FE01E65EFE4F8081882331F0FE01E65E89
:1027B000FE4F8081823069F5FE01E65EFE4F80812A
:1027C000882F90E09E0126503E4F880F991FF901F7
:1027D000E80FF91F808191818230910508F443C090
:1027E000FE01E65EFE4F8081282F30E081E090E020
:1027F000022E02C0880F991F0A94E2F7982FFE015B
:10280000E75EFE4F8081892BFE01E75EFE4F8083ED
:102810002AC0FE01E65EFE4F8081882F90E09E0177
:1028200026503E4F880F991FF901E80FF91F80814C
:1028300091810097C1F0FE01E65EFE4F8081282F56
:1028400030E081E090E0022E02C0880F991F0A94C8
:10285000E2F7982FFE01E75EFE4F8081892BFE0193
:10286000E75EFE4F8083DE01A65EBE4FFE01E65EA0
:10287000FE4F80818F5F8C93FE01E65EFE4F80816C
:10288000843008F469CE81E00E94440BFE01E75ECB
:10289000FE4F8081882F90E0A0E0B0E0BC01CD0128
:1028A0000E94C70CFE01E551FF4F80E090E0AAE7CF
:1028B000B4E480839183A283B3838E0109511F4FB7
:1028C000FE01E551FF4F608171818281938120E09B
:1028D00030E04AE755E40E941F02DC01CB01F80119
:1028E00080839183A283B383FE01E951FF4F60810E
:1028F00071818281938120E030E040E85FE30E94B3
:102900002504882344F4FE01EB51FF4F81E090E061
:102910009183808364C0FE01E951FF4F6081718122
:102920008281938120E03FEF4FE757E40E94C50387
:1029300018160CF043C0FE01E551FF4F6081718114
:102940008281938120E030E040E251E40E941F0246
:10295000DC01CB018E010B511F4FBC01CD010E9448
:102960004900DC01CB01F801918380831FC0FE0187
:10297000ED51FF4F80E991E091838083FE01ED519D
:10298000FF4F808191810197F1F7FE01ED51FF4FDB
:1029900091838083DE01AB51BF4FFE01EB51FF4FAE
:1029A00080819181019711969C938E93FE01EB514A
:1029B000FF4F808191810097D1F628C08E010B5185
:1029C0001F4FFE01E951FF4F608171818281938128
:1029D0000E944900DC01CB01F80191838083DE0174
:1029E000AF51BF4FFE01EB51FF4F80819181119696
:1029F0009C938E93FE01EF51FF4F8081918101974F
:102A0000F1F7FE01EF51FF4F91838083FE01E75EF6
:102A1000FE4F8081282F30E0CC5FDD4F3983288343
:102A2000C450D240CC5FDD4F88819981C450D240E0
:102A30008830910509F413C7CC5FDD4FA881B981B7
:102A4000C450D240A930B1050CF048C0CC5FDD4F76
:102A5000E881F981C450D240E430F10509F443C360
:102A6000CC5FDD4F28813981C450D24025303105FB
:102A700004F5CC5FDD4F88819981C450D24082300B
:102A8000910509F44FC1CC5FDD4FA881B981C450D5
:102A9000D240A330B1050CF025C2CC5FDD4FE881F8
:102AA000F981C450D240E130F10509F465C00C94BD
:102AB000AC22CC5FDD4F28813981C450D240263012
:102AC000310509F4E8C4CC5FDD4F88819981C45099
:102AD000D240873091050CF0C2C5F9C3CC5FDD4F01
:102AE000A881B981C450D240AC30B10511F40C9426
:102AF000B81FCC5FDD4FE881F981C450D240ED3082
:102B0000F105BCF4CC5FDD4F28813981C450D2403F
:102B10002A30310511F40C94EF1DCC5FDD4F888114
:102B20009981C450D2408B30910514F00C94D31E7F
:102B300072C7CC5FDD4FA881B981C450D240AE309E
:102B4000B10511F40C942321CC5FDD4FE881F981AC
:102B5000C450D240EE30F10514F40C947820CC5FD0
:102B6000DD4F28813981C450D2402F30310511F416
:102B70000C94E2210C94AC2281E00E94440B80E092
:102B800060E00E94520CCE01865D9E4F60E048E0FE
:102B900020E00E94850CCE01865D9E4F809661E00C
:102BA00047E020E00E94850CCE01865D9E4F409656
:102BB00062E046E020E00E94850CFE01E352FF4FF8
:102BC00080E090E0AAEFB4E480839183A283B38392
:102BD0008E0107521F4FFE01E352FF4F608171814A
:102BE0008281938120E030E04AE755E40E941F0291
:102BF000DC01CB01F80180839183A283B383FE01C2
:102C0000E752FF4F608171818281938120E030E043
:102C100040E85FE30E942504882344F4FE01E95262
:102C2000FF4F81E090E09183808364C0FE01E75212
:102C3000FF4F608171818281938120E03FEF4FE7F8
:102C400057E40E94C50318160CF043C0FE01E3527E
:102C5000FF4F608171818281938120E030E040E20A
:102C600051E40E941F02DC01CB018E0109521F4F6B
:102C7000BC01CD010E944900DC01CB01F801918328
:102C800080831FC0FE01EB52FF4F80E991E09183EA
:102C90008083FE01EB52FF4F808191810197F1F714
:102CA000FE01EB52FF4F91838083DE01A952BF4F9B
:102CB000FE01E952FF4F80819181019711969C930B
:102CC0008E93FE01E952FF4F808191810097D1F6EA
:102CD00072CA8E0109521F4FFE01E752FF4F6081F9
:102CE0007181828193810E944900DC01CB01F8014E
:102CF00091838083DE01AD52BF4FFE01E952FF4F49
:102D00008081918111969C938E93FE01ED52FF4F2D
:102D1000808191810197F1F7FE01ED52FF4F918380
:102D2000808349CA81E00E94440B80E060E00E94F9
:102D3000520CCE01865D9E4F60E049E020E00E948B
:102D4000850CCE01865D9E4F489661E048E020E00C
:102D50000E94850CCE01865D9E4F089662E047E09A
:102D600020E00E94850CCE01865D9E4F80589F4FCB
:102D700063E046E020E00E94850CFE01E153FF4F36
:102D800080E090E0AAEFB4E480839183A283B383D0
:102D90008E0105531F4FFE01E153FF4F608171818A
:102DA0008281938120E030E04AE755E40E941F02CF
:102DB000DC01CB01F80180839183A283B383FE0100
:102DC000E553FF4F608171818281938120E030E083
:102DD00040E85FE30E942504882344F4FE01E753A2
:102DE000FF4F81E090E09183808364C0FE01E55352
:102DF000FF4F608171818281938120E03FEF4FE737
:102E000057E40E94C50318160CF043C0FE01E153BD
:102E1000FF4F608171818281938120E030E040E248
:102E200051E40E941F02DC01CB018E0107531F4FAA
:102E3000BC01CD010E944900DC01CB01F801918366
:102E400080831FC0FE01E953FF4F80E991E0918329
:102E50008083FE01E953FF4F808191810197F1F753
:102E6000FE01E953FF4F91838083DE01A753BF4FDB
:102E7000FE01E753FF4F80819181019711969C934A
:102E80008E93FE01E753FF4F808191810097D1F629
:102E900092C98E0107531F4FFE01E553FF4F60811A
:102EA0007181828193810E944900DC01CB01F8018C
:102EB00091838083DE01AB53BF4FFE01E753FF4F89
:102EC0008081918111969C938E93FE01EB53FF4F6D
:102ED000808191810197F1F7FE01EB53FF4F9183C0
:102EE000808369C981E00E94440B80E060E00E9419
:102EF000520CCE01865D9E4F885B9F4F60E04AE09A
:102F000020E00E94850CCE01865D9E4F88579F4F22
:102F100061E049E020E00E94850CCE01865D9E4F75
:102F2000C89662E048E020E00E94850CCE01865DF4
:102F30009E4F805B9F4F63E047E020E00E94850C3E
:102F4000CE01865D9E4F885A9F4F64E046E020E0A8
:102F50000E94850CCE01865D9E4F80579F4F65E095
:102F600045E020E00E94850CCE01865D9E4F88558D
:102F70009F4F66E044E020E00E94850CFE01EF5385
:102F8000FF4F80E090E0AAEFB4E480839183A283B6
:102F9000B3838E0103541F4FFE01EF53FF4F608137
:102FA00071818281938120E030E04AE755E40E94FC
:102FB0001F02DC01CB01F80180839183A283B383DC
:102FC000FE01E354FF4F608171818281938120E093
:102FD00030E040E85FE30E942504882344F4FE01CA
:102FE000E554FF4F81E090E09183808364C0FE014F
:102FF000E354FF4F608171818281938120E03FEF34
:103000004FE757E40E94C50318160CF043C0FE01B9
:10301000EF53FF4F608171818281938120E030E026
:1030200040E251E40E941F02DC01CB018E010554F5
:103030001F4FBC01CD010E944900DC01CB01F8010A
:10304000918380831FC0FE01E754FF4F80E991E028
:1030500091838083FE01E754FF4F80819181019726
:10306000F1F7FE01E754FF4F91838083DE01A55401
:10307000BF4FFE01E554FF4F80819181019711966A
:103080009C938E93FE01E554FF4F808191810097C0
:10309000D1F691C88E0105541F4FFE01E354FF4F36
:1030A00060817181828193810E944900DC01CB01A2
:1030B000F80191838083DE01A954BF4FFE01E554DE
:1030C000FF4F8081918111969C938E93FE01E9546C
:1030D000FF4F808191810197F1F7FE01E954FF4F85
:1030E0009183808368C881E00E94440B80E060E0A7
:1030F0000E94520CCE01865D9E4F60E04AE020E0C7
:103100000E94850CCE01865D9E4F889661E049E065
:1031100020E00E94850CCE01865D9E4FC89662E03D
:1031200048E020E00E94850CCE01865D9E4FC0964F
:1031300063E047E020E00E94850CCE01865D9E4F53
:10314000089664E046E020E00E94850CCE01865D92
:103150009E4F80589F4F65E045E020E00E94850C1F
:10316000FE01ED54FF4F80E090E0AAEFB4E48083CD
:103170009183A283B3838E0101551F4FFE01ED544D
:10318000FF4F608171818281938120E030E04AE7C6
:1031900055E40E941F02DC01CB01F801808391837A
:1031A000A283B383FE01E155FF4F6081718182816B
:1031B000938120E030E040E85FE30E94250488230B
:1031C00044F4FE01E355FF4F81E090E0918380835A
:1031D00065C0FE01E155FF4F60817181828193815D
:1031E00020E03FEF4FE757E40E94C50318160CF0AC
:1031F00044C0FE01ED54FF4F608171818281938153
:1032000020E030E040E251E40E941F02DC01CB01EB
:103210008E0103551F4FBC01CD010E944900DC0106
:10322000CB01F801918380831FC0FE01E555FF4F5C
:1032300080E991E091838083FE01E555FF4F808115
:1032400091810197F1F7FE01E555FF4F918380834E
:10325000DE01A355BF4FFE01E355FF4F80819181F1
:10326000019711969C938E93FE01E355FF4F808149
:1032700091810097D1F60C94DB108E0103551F4FFE
:10328000FE01E155FF4F60817181828193810E942F
:103290004900DC01CB01F80191838083DE01A75551
:1032A000BF4FFE01E355FF4F8081918111969C93A2
:1032B0008E93FE01E755FF4F808191810197F1F7D1
:1032C000FE01E755FF4F918380830C94DB1081E072
:1032D0000E94440B80E060E00E94520CCE01865DAB
:1032E0009E4F88569F4F60E049E020E00E94850C89
:1032F000CE01865D9E4F80569F4F61E048E020E002
:103300000E94850CCE01865D9E4F889662E047E064
:1033100020E00E94850CCE01865D9E4FC89663E03A
:1033200046E020E00E94850CFE01EB55FF4F80E057
:1033300090E0AAEFB4E480839183A283B3838E01EB
:103340000F551F4FFE01EB55FF4F60817181828148
:10335000938120E030E04AE755E40E941F02DC013F
:10336000CB01F80180839183A283B383FE01EF55E3
:10337000FF4F608171818281938120E030E040E8DD
:103380005FE30E942504882344F4FE01E156FF4FC9
:1033900081E090E09183808365C0FE01EF55FF4F8F
:1033A000608171818281938120E03FEF4FE757E494
:1033B0000E94C50318160CF044C0FE01EB55FF4FE8
:1033C000608171818281938120E030E040E251E4AC
:1033D0000E941F02DC01CB018E0101561F4FBC0170
:1033E000CD010E944900DC01CB01F801918380836B
:1033F0001FC0FE01E356FF4F80E991E09183808377
:10340000FE01E356FF4F808191810197F1F7FE01A4
:10341000E356FF4F91838083DE01A156BF4FFE012B
:10342000E156FF4F80819181019711969C938E9375
:10343000FE01E156FF4F808191810097D1F60C94F7
:10344000DB108E0101561F4FFE01EF55FF4F6081CB
:103450007181828193810E944900DC01CB01F801D6
:1034600091838083DE01A556BF4FFE01E156FF4FD9
:103470008081918111969C938E93FE01E556FF4FBA
:10348000808191810197F1F7FE01E556FF4F91830D
:1034900080830C94DB1081E00E94440B80E060E0AC
:1034A0000E94520CCE01865D9E4F409660E049E03E
:1034B00020E00E94850CCE01865D9E4F885B9F4F69
:1034C00061E048E020E00E94850CCE01865D9E4FC1
:1034D000C89662E047E020E00E94850CCE01865D40
:1034E0009E4F805A9F4F63E046E020E00E94850C8B
:1034F000FE01E956FF4F80E090E0AAEFB4E480833C
:103500009183A283B3838E010D561F4FFE01E956AE
:10351000FF4F608171818281938120E030E04AE732
:1035200055E40E941F02DC01CB01F80180839183E6
:10353000A283B383FE01ED56FF4F608171818281CA
:10354000938120E030E040E85FE30E942504882377
:1035500044F4FE01EF56FF4F81E090E091838083B9
:1035600065C0FE01ED56FF4F6081718182819381BC
:1035700020E03FEF4FE757E40E94C50318160CF018
:1035800044C0FE01E956FF4F6081718182819381C1
:1035900020E030E040E251E40E941F02DC01CB0158
:1035A0008E010F561F4FBC01CD010E944900DC0166
:1035B000CB01F801918380831FC0FE01E157FF4FCB
:1035C00080E991E091838083FE01E157FF4F808184
:1035D00091810197F1F7FE01E157FF4F91838083BD
:1035E000DE01AF56BF4FFE01EF56FF4F8081918144
:1035F000019711969C938E93FE01EF56FF4F8081A9
:1036000091810097D1F60C94DB108E010F561F4F5D
:10361000FE01ED56FF4F60817181828193810E948E
:103620004900DC01CB01F80191838083DE01A357BF
:10363000BF4FFE01EF56FF4F8081918111969C9301
:103640008E93FE01E357FF4F808191810197F1F73F
:10365000FE01E357FF4F918380830C94DB1081E0E0
:103660000E94440B80E060E00E94520CCE01865D17
:103670009E4F885B9F4F67E04BE020E00E94850CE7
:10368000CE01865D9E4FC89660E04AE020E00E9431
:10369000850CCE01865D9E4F889662E048E020E072
:1036A0000E94850CCE01865D9E4F63E047E020E0DE
:1036B0000E94850CCE01865D9E4F805C9F4F64E02A
:1036C00046E020E00E94850CCE01865D9E4F80582A
:1036D0009F4F65E045E020E00E94850CCE01865DAD
:1036E0009E4F88559F4F66E044E020E00E94850C85
:1036F000FE01E757FF4F80E090E0AAEFB4E480833B
:103700009183A283B3838E010B571F4FFE01E757AE
:10371000FF4F608171818281938120E030E04AE730
:1037200055E40E941F02DC01CB01F80180839183E4
:10373000A283B383FE01EB57FF4F608171818281C9
:10374000938120E030E040E85FE30E942504882375
:1037500044F4FE01ED57FF4F81E090E091838083B8
:1037600065C0FE01EB57FF4F6081718182819381BB
:1037700020E03FEF4FE757E40E94C50318160CF016
:1037800044C0FE01E757FF4F6081718182819381C0
:1037900020E030E040E251E40E941F02DC01CB0156
:1037A0008E010D571F4FBC01CD010E944900DC0165
:1037B000CB01F801918380831FC0FE01EF57FF4FBB
:1037C00080E991E091838083FE01EF57FF4F808174
:1037D00091810197F1F7FE01EF57FF4F91838083AD
:1037E000DE01AD57BF4FFE01ED57FF4F8081918144
:1037F000019711969C938E93FE01ED57FF4F8081A8
:1038000091810097D1F60C94DB108E010D571F4F5C
:10381000FE01EB57FF4F60817181828193810E948D
:103820004900DC01CB01F80191838083DE01A158BE
:10383000BF4FFE01ED57FF4F8081918111969C9300
:103840008E93FE01E158FF4F808191810197F1F73E
:10385000FE01E158FF4F918380830C94DB1081E0DF
:103860000E94440B80E060E00E94520CCE01865D15
:103870009E4F80559F4F60E048E020E00E94850CFD
:10388000CE01865D9E4F805B9F4F61E047E020E068
:103890000E94850CCE01865D9E4F885A9F4F62E044
:1038A00046E020E00E94850CFE01E558FF4F80E0D5
:1038B00090E0AAEFB4E480839183A283B3838E0166
:1038C00009581F4FFE01E558FF4F608171818281C9
:1038D000938120E030E04AE755E40E941F02DC01BA
:1038E000CB01F80180839183A283B383FE01E95861
:1038F000FF4F608171818281938120E030E040E858
:103900005FE30E942504882344F4FE01EB58FF4F37
:1039100081E090E09183808365C0FE01E958FF4F0C
:10392000608171818281938120E03FEF4FE757E40E
:103930000E94C50318160CF044C0FE01E558FF4F65
:10394000608171818281938120E030E040E251E426
:103950000E941F02DC01CB018E010B581F4FBC01DE
:10396000CD010E944900DC01CB01F80191838083E5
:103970001FC0FE01ED58FF4F80E991E091838083E5
:10398000FE01ED58FF4F808191810197F1F7FE0113
:10399000ED58FF4F91838083DE01AB58BF4FFE018E
:1039A000EB58FF4F80819181019711969C938E93E4
:1039B000FE01EB58FF4F808191810097D1F60C9466
:1039C000DB108E010B581F4FFE01E958FF4F60813D
:1039D0007181828193810E944900DC01CB01F80151
:1039E00091838083DE01AF58BF4FFE01EB58FF4F3C
:1039F0008081918111969C938E93FE01EF58FF4F29
:103A0000808191810197F1F7FE01EF58FF4F91837B
:103A100080830C94DB1081E00E94440B80E060E026
:103A20000E94520CCE01865D9E4F60E048E020E08F
:103A30000E94850CCE01865D9E4F80569F4F61E0AF
:103A400047E020E00E94850CCE01865D9E4F8059A4
:103A50009F4F62E046E020E00E94850CCE01865D2B
:103A60009E4F88559F4F63E045E020E00E94850C03
:103A7000FE01E359FF4F80E090E0AAEFB4E48083B9
:103A80009183A283B3838E0107591F4FFE01E3592F
:103A9000FF4F608171818281938120E030E04AE7AD
:103AA00055E40E941F02DC01CB01F8018083918361
:103AB000A283B383FE01E759FF4F60817181828148
:103AC000938120E030E040E85FE30E9425048823F2
:103AD00044F4FE01E959FF4F81E090E09183808337
:103AE00065C0FE01E759FF4F60817181828193813A
:103AF00020E03FEF4FE757E40E94C50318160CF093
:103B000044C0FE01E359FF4F60817181828193813E
:103B100020E030E040E251E40E941F02DC01CB01D2
:103B20008E0109591F4FBC01CD010E944900DC01E3
:103B3000CB01F801918380831FC0FE01EB59FF4F39
:103B400080E991E091838083FE01EB59FF4F8081F2
:103B500091810197F1F7FE01EB59FF4F918380832B
:103B6000DE01A959BF4FFE01E959FF4F80819181C4
:103B7000019711969C938E93FE01E959FF4F808126
:103B800091810097D1F60C94DB108E0109591F4FDB
:103B9000FE01E759FF4F60817181828193810E940C
:103BA0004900DC01CB01F80191838083DE01AD592E
:103BB000BF4FFE01E959FF4F8081918111969C937F
:103BC0008E93FE01ED59FF4F808191810197F1F7AE
:103BD000FE01ED59FF4F918380830C94DB1081E04F
:103BE0000E94440B80E060E00E94520CCE01865D92
:103BF0009E4F88569F4F60E048E020E00E94850C71
:103C0000CE01865D9E4F889661E047E020E00E94ED
:103C1000850CCE01865D9E4F089662E046E020E06E
:103C20000E94850CCE01865D9E4F88559F4F63E0B4
:103C300045E020E00E94850CFE01E15AFF4F80E044
:103C400090E0AAEFB4E480839183A283B3838E01D2
:103C5000055A1F4FFE01E15AFF4F60817181828139
:103C6000938120E030E04AE755E40E941F02DC0126
:103C7000CB01F80180839183A283B383FE01E55ACF
:103C8000FF4F608171818281938120E030E040E8C4
:103C90005FE30E942504882344F4FE01E75AFF4FA6
:103CA00081E090E09183808365C0FE01E55AFF4F7B
:103CB000608171818281938120E03FEF4FE757E47B
:103CC0000E94C50318160CF044C0FE01E15AFF4FD4
:103CD000608171818281938120E030E040E251E493
:103CE0000E941F02DC01CB018E01075A1F4FBC014D
:103CF000CD010E944900DC01CB01F8019183808352
:103D00001FC0FE01E95AFF4F80E991E09183808353
:103D1000FE01E95AFF4F808191810197F1F7FE0181
:103D2000E95AFF4F91838083DE01A75ABF4FFE01FE
:103D3000E75AFF4F80819181019711969C938E9352
:103D4000FE01E75AFF4F808191810097D1F60C94D4
:103D5000DB108E01075A1F4FFE01E55AFF4F6081AD
:103D60007181828193810E944900DC01CB01F801BD
:103D700091838083DE01AB5ABF4FFE01E75AFF4FAC
:103D80008081918111969C938E93FE01EB5AFF4F97
:103D9000808191810197F1F7FE01EB5AFF4F9183EA
:103DA00080830C94DB1081E00E94440B80E060E093
:103DB0000E94520CCE01865D9E4F809660E048E0E6
:103DC00020E00E94850CCE01865D9E4F80559F4F5E
:103DD00061E047E020E00E94850CCE01865D9E4FA9
:103DE000805A9F4F62E046E020E00E94850CCE01A1
:103DF000865D9E4F88559F4F63E045E020E00E941E
:103E0000850CFE01EF5AFF4F80E090E0AAEFB4E48A
:103E100080839183A283B3838E01035B1F4FFE01D6
:103E2000EF5AFF4F608171818281938120E030E001
:103E30004AE755E40E941F02DC01CB01F8018083B0
:103E40009183A283B383FE01E35BFF4F60817181A5
:103E50008281938120E030E040E85FE30E94250406
:103E6000882344F4FE01E55BFF4F81E090E09183FD
:103E7000808365C0FE01E35BFF4F608171818281B9
:103E8000938120E03FEF4FE757E40E94C5031816E7
:103E90000CF044C0FE01EF5AFF4F608171818281B6
:103EA000938120E030E040E251E40E941F02DC01F7
:103EB000CB018E01055B1F4FBC01CD010E94490063
:103EC000DC01CB01F801918380831FC0FE01E75B19
:103ED000FF4F80E991E091838083FE01E75BFF4F14
:103EE000808191810197F1F7FE01E75BFF4F91839C
:103EF0008083DE01A55BBF4FFE01E55BFF4F808144
:103F00009181019711969C938E93FE01E55BFF4F83
:103F1000808191810097D1F60C94DB108E01055BB6
:103F20001F4FFE01E35BFF4F6081718182819381AE
:103F30000E944900DC01CB01F80191838083DE01FE
:103F4000A95BBF4FFE01E55BFF4F80819181119618
:103F50009C938E93FE01E95BFF4F808191810197D5
:103F6000F1F7FE01E95BFF4F918380830C94DB1036
:103F700081E00E94440B80E060E00E94520CCE0180
:103F8000865D9E4F88579F4F60E049E020E00E9489
:103F9000850CCE01865D9E4FC89661E048E020E02A
:103FA0000E94850CCE01865D9E4F88549F4F62E033
:103FB00047E020E00E94850CCE01865D9E4F805434
:103FC0009F4F63E046E020E00E94850CCE01865DB5
:103FD0009E4F88559F4F64E045E020E00E94850C8D
:103FE000FE01ED5BFF4F80E090E0AAEFB4E4808338
:103FF0009183A283B3838E01015C1F4FFE01ED5BB1
:10400000FF4F608171818281938120E030E04AE737
:1040100055E40E941F02DC01CB01F80180839183EB
:10402000A283B383FE01FF966081718182819381B7
:1040300020E030E040E85FE30E94250488232CF470
:1040400081E090E09EAF8DAF47C0FE01FF9660819A
:1040500071818281938120E03FEF4FE757E40E9416
:10406000C50318166CF5FE01ED5BFF4F6081718191
:104070008281938120E030E040E251E40E941F02FF
:10408000DC01CB01BC01CD010E944900DC01CB0168
:104090009EAF8DAF0FC080E991E09CAF8BAF8BAD31
:1040A0009CAD0197F1F79CAF8BAF8DAD9EAD0197A5
:1040B0009EAF8DAF8DAD9EAD009769F70C94DB1070
:1040C000FE01FF9660817181828193810E94490087
:1040D000DC01CB019EAF8DAF8DAD9EAD9AAF89AFA8
:1040E00089AD9AAD0197F1F79AAF89AF0C94DB10C7
:1040F00081E00E94440B80E060E00E94520CCE01FF
:10410000865D9E4F089660E049E020E00E94850CA5
:10411000CE01865D9E4FC89661E048E020E00E9497
:10412000850CCE01865D9E4F889662E047E020E0D8
:104130000E94850CCE01865D9E4F885A9F4F63E09A
:1041400046E020E00E94850CCE01865D9E4F88559A
:104150009F4F64E045E020E00E94850C80E090E005
:10416000AAEFB4E48DAB9EABAFABB8AF6DA97EA99F
:104170008FA998AD20E030E04AE755E40E941F0285
:10418000DC01CB0189AB9AABABABBCAB69A97AA91B
:104190008BA99CA920E030E040E85FE30E94250461
:1041A00088232CF481E090E098AB8FA740C069A9E8
:1041B0007AA98BA99CA920E03FEF4FE757E40E9422
:1041C000C503181654F56DA97EA98FA998AD20E0F6
:1041D00030E040E251E40E941F02DC01CB01BC014F
:1041E000CD010E944900DC01CB0198AB8FA70FC025
:1041F00080E991E09EA78DA78DA59EA50197F1F777
:104200009EA78DA78FA598A9019798AB8FA78FA57B
:1042100098A9009769F70C94DB1069A97AA98BA972
:104220009CA90E944900DC01CB0198AB8FA78FA508
:1042300098A99CA78BA78BA59CA50197F1F79CA794
:104240008BA70C94DB1081E00E94440B80E060E0BF
:104250000E94520CCE01865D9E4F885B9F4F60E0AE
:104260004BE020E00E94850CCE01865D9E4FC896F3
:1042700061E04AE020E00E94850CCE01865D9E4F01
:1042800062E048E020E00E94850CCE01865D9E4FF2
:1042900088579F4F63E047E020E00E94850CCE01E5
:1042A000865D9E4F885B9F4F64E046E020E00E9461
:1042B000850CCE01865D9E4F80589F4F65E045E09E
:1042C00020E00E94850CCE01865D9E4F88559F4F51
:1042D00066E044E020E00E94850C80E090E0AAEFD8
:1042E000B4E48FA398A7A9A7BAA76FA178A589A5B9
:1042F0009AA520E030E04AE755E40E941F02DC0165
:10430000CB018BA39CA3ADA3BEA36BA17CA18DA16C
:104310009EA120E030E040E85FE30E94250488236E
:104320002CF481E090E09AA389A340C06BA17CA10A
:104330008DA19EA120E03FEF4FE757E40E94C50307
:10434000181654F56FA178A589A59AA520E030E04C
:1043500040E251E40E941F02DC01CB01BC01CD010F
:104360000E944900DC01CB019AA389A30FC080E918
:1043700091E098A38F8F8F8D98A10197F1F798A363
:104380008F8F89A19AA101979AA389A389A19AA144
:10439000009769F70C94DB106BA17CA18DA19EA105
:1043A0000E944900DC01CB019AA389A389A19AA1AB
:1043B0009E8F8D8F8D8D9E8D0197F1F79E8F8D8FA6
:1043C0000C94DB1081E00E94440B80E060E00E94CE
:1043D000520CCE01865D9E4F80589F4F60E04CE0AE
:1043E00020E00E94850CCE01865D9E4F805C9F4F31
:1043F00061E04BE020E00E94850CCE01865D9E4F7F
:1044000088539F4F62E04AE020E00E94850CCE0175
:10441000865D9E4F489663E048E020E00E94850C50
:10442000CE01865D9E4FC89664E047E020E00E9482
:10443000850CCE01865D9E4F80599F4F65E046E01A
:1044400020E00E94850CCE01865D9E4F80589F4FD4
:1044500066E045E020E00E94850CCE01865D9E4F1F
:1044600088559F4F67E044E020E00E94850C80E083
:1044700090E0AAEFB4E4898F9A8FAB8FBC8F698DDF
:104480007A8D8B8D9C8D20E030E04AE755E40E94C8
:104490001F02DC01CB018D8B9E8BAF8BB88F6D899A
:1044A0007E898F89988D20E030E040E85FE30E94AC
:1044B000250488232CF481E090E09C8B8B8B40C0FA
:1044C0006D897E898F89988D20E03FEF4FE757E413
:1044D0000E94C503181654F5698D7A8D8B8D9C8DBD
:1044E00020E030E040E251E40E941F02DC01CB01F9
:1044F000BC01CD010E944900DC01CB019C8B8B8B60
:104500000FC080E991E09A8B898B89899A890197FC
:10451000F1F79A8B898B8B899C8901979C8B8B8B6C
:104520008B899C89009769F70C94DB106D897E89D3
:104530008F89988D0E944900DC01CB019C8B8B8B6D
:104540008B899C89988B8F878F8598890197F1F744
:10455000988B8F870C94DB1081E00E94440B80E0E5
:1045600060E00E94520C8FE690E00E941E0C80E0FA
:1045700090E0AAEFB4E48B879C87AD87BE876B85FC
:104580007C858D859E8520E030E04AE755E40E94D9
:104590001F02DC01CB018F839887A987BA876F81BF
:1045A000788589859A8520E030E040E85FE30E94C5
:1045B000250488232CF481E090E09E838D8340C005
:1045C0006F81788589859A8520E03FEF4FE757E432
:1045D0000E94C503181654F56B857C858D859E85D4
:1045E00020E030E040E251E40E941F02DC01CB01F8
:1045F000BC01CD010E944900DC01CB019E838D836B
:104600000FC080E991E09C838B838B819C81019713
:10461000F1F79C838B838D819E8101979E838D838F
:104620008D819E81009769F70C94DB106F817885EE
:1046300089859A850E944900DC01CB019E838D8388
:104640008D819E819A83898389819A810197F1F76F
:104650009A8389830C94DB10629FD001739FF001D1
:10466000829FE00DF11D649FE00DF11D929FF00D02
:10467000839FF00D749FF00D659FF00D9927729F39
:10468000B00DE11DF91F639FB00DE11DF91FBD01C4
:10469000CF0111240895A1E21A2EAA1BBB1BFD0114
:1046A0000DC0AA1FBB1FEE1FFF1FA217B307E40711
:1046B000F50720F0A21BB30BE40BF50B661F771F69
:1046C000881F991F1A9469F7609570958095909549
:1046D0009B01AC01BD01CF0108952F923F924F92F3
:1046E0005F926F927F928F929F92AF92BF92CF9282
:1046F000DF92EF92FF920F931F93CF93DF93CDB78B
:10470000DEB7CA1BDB0B0FB6F894DEBF0FBECDBF02
:1047100009942A88398848885F846E847D848C84D3
:104720009B84AA84B984C884DF80EE80FD800C81DC
:104730001B81AA81B981CE0FD11D0FB6F894DEBFBF
:0C4740000FBECDBFED010895F894FFCF2F
:10474C004D616B6520796F757220776F7264004EC6
:10475C006F2063686F696365000000000000000053
:10476C000000010202030303030404040404040410
:10477C0004050505050505050505050505050505DE
:10478C0005060606060606060606060606060606BE
:10479C0006060606060606060606060606060606AD
:1047AC00060707070707070707070707070707078E
:1047BC00070707070707070707070707070707077D
:1047CC00070707070707070707070707070707076D
:1047DC00070707070707070707070707070707075D
:1047EC00070808080808080808080808080808083E
:1047FC00080808080808080808080808080808082D
:10480C00080808080808080808080808080808081C
:10481C00080808080808080808080808080808080C
:10482C0008080808080808080808080808080808FC
:10483C0008080808080808080808080808080808EC
:10484C0008080808080808080808080808080808DC
:10485C0008080808080808080808080808080808CC
:08486C0008010002030604002C
:00000001FF
